:100000000C942A000C9447000C9447000C94470071
:100010000C9447000C9447000C9447000C94470044
:100020000C9447000C9447000C9447000C94470034
:100030000C9447000C9447000C9447000C94470024
:100040000C9447000C9447000C9447000C94470014
:100050000C94470011241FBECFE5D4E0DEBFCDBF16
:1000600010E0A0E6B0E0E0EDF0E002C005900D92F7
:10007000A036B107D9F710E0A0E6B0E001C01D92AC
:10008000A036B107E1F70E9449000C9466000C9479
:10009000000081E08ABB11BA809B0CC08BBB8BBB7C
:1000A0002FE33DE043E0215030404040E1F700C005
:1000B0000000F2CFD8981BBA2FE33DE043E0215077
:1000C00030404040E1F700C00000E6CFF894FFCF99
:00000001FF
