:100000000C942A000C9447000C9447000C94470071
:100010000C9447000C9447000C9447000C94470044
:100020000C9447000C9447000C9447000C94470034
:100030000C9447000C9447000C9447000C94470024
:100040000C9447000C9447000C9447000C94470014
:100050000C94470011241FBECFE5D4E0DEBFCDBF16
:1000600010E0A0E6B0E0E0EFF0E002C005900D92F5
:10007000A036B107D9F710E0A0E6B0E001C01D92AC
:10008000A036B107E1F70E9449000C9476000C9469
:1000900000008FEF84BB91E082E095BB2FE33DE051
:1000A00043E0215030404040E1F700C0000015BA65
:1000B0002FE936E841E0215030404040E1F700C0F0
:1000C000000085BB2FE33DE043E02150304040403D
:1000D000E1F700C0000015BA2FE936E841E02150F1
:1000E00030404040E1F700C00000D7CFF894FFCF88
:00000001FF
