:100000000C942A000C9447000C9447000C94470071
:100010000C9447000C9447000C9447000C94470044
:100020000C9447000C9447000C9447000C94470034
:100030000C9447000C9447000C9447000C94470024
:100040000C9447000C9447000C9447000C94470014
:100050000C94470011241FBECFE5D4E0DEBFCDBF16
:1000600010E0A0E6B0E0E2E1F1E002C005900D9200
:10007000AA36B107D9F710E0AAE6B0E001C01D9298
:10008000AA36B107E1F70E9449000C9487000C944E
:100090000000CF93DF93CDB7DEB72A970FB6F89461
:1000A000DEBF0FBECDBF8FEF84BB8ABBDE011196D2
:1000B000E0E6F0E08AE001900D928150E1F720E067
:1000C00030E07E010894E11CF11C1E2DBF2DCE01F5
:1000D0000B96CC24DD24F701E20FF31FE081EBBB8C
:1000E000E12FFB2FA191A5BB4FE35DE063E0415001
:1000F00050406040E1F700C00000E817F90791F7B1
:100100002F5F3F4F2A30310534F39601E4CFF89446
:02011000FFCF1F
:0A0112003F065B4F666D7D077F67B7
:00000001FF
